S00E0000446F5F416E322E7372656323
S11300000C9434000C943E000C943E000C943E007E
S11300100C943E000C943E000C943E000C943E0064
S11300200C943E000C943E000C943E000C943E0054
S11300300C943E000C943E000C943E000C943E0044
S11300400C943E000C943E000C943E000C943E0034
S11300500C943E005500570059005B005D005F00A2
S1130060610063006600650011241FBECFE5D4E083
S1130070DEBFCDBF0E9490000C94C3000C9400001E
S113008081B38FEF81BB92B382BB94B384BB95B32E
S113009085BB089525B3287090E08A309105B0F4AB
S11300A0FC01E65DFF4F0C94A90020680FC0236E8D
S11300B00DC024640BC0216409C0236207C0216100
S11300C005C0206103C0236C01C0216025BB0895D5
S11300D0C0E0DFEFD2BB2FE986E891E021508040F9
S11300E09040E1F700C00000D69509F4DFEF8C2FB3
S11300F00E944A0095B388E0892785BB2FE986E8EA
S113010091E0215080409040E1F700C000008C2F26
S113011090E001966AE070E00E949500C82FDACF63
S11301200E9440000E946800FDCF97FB072E16F442
S1130130009407D077FD09D00E94AF0007FC05D0DA
S11301403EF4909581959F4F0895709561957F4FEA
S11301500895EE0FFF1F0590F491E02D0994AA1B5A
S1130160BB1B51E107C0AA1FBB1FA617B70710F09E
S1130170A61BB70B881F991F5A95A9F780959095D0
S10D0180BC01CD010895F894FFCFEF
S9030000FC
