:100000000C942A000C9447000C9447000C94470071
:100010000C9447000C9447000C9447000C94470044
:100020000C9447000C9447000C9447000C94470034
:100030000C9447000C9447000C9447000C94470024
:100040000C9447000C9447000C9447000C94470014
:100050000C94470011241FBECFE5D4E0DEBFCDBF16
:1000600010E0A0E6B0E0E0EEF6E002C005900D92F0
:10007000A639B107D9F720E0A6E9B0E001C01D928A
:10008000AA39B207E1F70E9454010C946E030C9454
:100090000000979A85E28A95F1F70000979887EC1F
:1000A00090E00197F1F700C00000089580FF02C0C2
:1000B000AC9A01C0AC9881FF02C0AD9A01C0AD9866
:1000C00082FF02C0AE9A01C0AE9883FF02C0AF9A11
:1000D0000895AF980895CF93C82F82958F700E948E
:1000E00056000E9449008C2F0E9456000E94490031
:1000F000CF91089581E00E946B008FE39FE101970B
:10010000F1F700C00000089580E00E9456002FEF34
:1001100089EF90E0215080409040E1F700C000005E
:100120009698959883E00E9456000E9449008FE1BE
:100130009EE40197F1F700C000000E9449008FE89B
:1001400091E00197F1F700C000000E94490082E0B1
:100150000E9456000E94490088E20E946B008CE0D9
:100160000E946B0086E00E946B0081E00E946B00A1
:1001700082E00E946B008FE39FE10197F1F700C0DE
:1001800000000895672B11F4805801C08054EFE9F6
:10019000FFE03197F1F700C000000E946B0087EC90
:1001A00090E00197F1F700C000000895969A0E9430
:1001B0006B0096980895CF93DF93EC018881882394
:1001C00031F021960E94D60089918111FBCFDF91F9
:1001D000CF910895D39A0895DB9A0895DB980895F6
:1001E000D19A0895D99A80E58A95F1F7D99808951A
:1001F000CA9918C081E090E0A0E0B0E0CA990DC0B3
:100200000196A11DB11D803C27E2920729E0A207BB
:10021000B105A1F78FEF9FEF0895803C9742A94069
:10022000B105C9F11FBC82E08EBD1DBC1CBCCA9BC0
:1002300022C08CB59DB581369A4EE8F481E090E0FD
:10024000A0E0B0E0CA9B12C02CB53DB521363A4EB5
:1002500068F40196A11DB11D803C27E2920729E0B8
:10026000A207B10579F78EEF9FEF0895803C974282
:10027000A940B10599F08CB59DB5A0E0B0E01EBCD9
:1002800081362AEE9207A105B10558F4B695A795D7
:100290009795879508958FEF9FEF08958EEF9FEFC5
:1002A00008958EEF9FEF0895CF93DF9300D000D095
:1002B000CDB7DEB781B39FEF91BB82B38A6A82BBB1
:1002C00084B394BB85B385BB0E94EA000E9484007E
:1002D0002FEF81EE94E0215080409040E1F700C084
:1002E00000000E94F0000E94F2000E94F8008F3F80
:1002F0002FEF920769F461E070E081E090E00E94E6
:10030000C20080E690E00E94DB000E94EE00EBCF8E
:10031000BC0180E090E00E943E0226E933E44BE01D
:100320005DE30E94A40220E030E040E05FE30E9431
:10033000A4020E9408027093990060939800209193
:100340009600309197002617370711F00E947A0027
:1003500080919800909199000A971CF40E94EC00FB
:1003600002C00E94EE0080919800909199004597FC
:100370005CF460E070E080E090E00E94C20087E6FC
:1003800090E00E94DB000AC060E070E080E090E056
:100390000E94C20085E790E00E94DB0061E070E00F
:1003A00081E090E00E94C20086E890E00E94DB00BD
:1003B00061E070E08CE090E00E94C2004AE0BE0183
:1003C0006F5F7F4F80919800909199000E94390350
:1003D000CE0101960E94DB0061E070E08EE090E0CB
:1003E0000E94C20082E990E00E94DB0080919800A8
:1003F0009091990090939700809396008FEF96E7E5
:1004000021E0815090402040E1F700C000006BCF18
:100410000E940F026894B1110C949E0208950E94EC
:10042000830288F09F5798F0B92F9927B751B0F001
:10043000E1F0660F771F881F991F1AF0BA95C9F768
:1004400014C0B13091F00E949D02B1E008950C9467
:100450009D02672F782F8827B85F39F0B93FCCF31A
:10046000869577956795B395D9F73EF490958095E5
:10047000709561957F4F8F4F9F4F0895E89409C005
:1004800097FB3EF490958095709561957F4F8F4FC7
:100490009F4F9923A9F0F92F96E9BB279395F695DD
:1004A000879577956795B795F111F8CFFAF4BB0F5B
:1004B00011F460FF1BC06F5F7F4F8F4F9F4F16C0BF
:1004C000882311F096E911C0772321F09EE8872F49
:1004D000762F05C0662371F096E8862F70E060E005
:1004E0002AF09A95660F771F881FDAF7880F96957E
:1004F000879597F9089557FD9058440F551F59F067
:100500005F3F71F04795880F97FB991F61F09F3F00
:1005100079F087950895121613061406551FF2CF29
:100520004695F1DF08C0161617061806991FF1CF79
:1005300086957105610508940895E894BB276627A0
:100540007727CB0197F908950E94B7020C942803EE
:100550000E941A0338F00E94210320F0952311F025
:100560000C9411030C94170311240C949E020E9406
:100570007B0270F3959FC1F3950F50E0551F629F6A
:10058000F001729FBB27F00DB11D639FAA27F00DEC
:10059000B11DAA1F649F6627B00DA11D661F829F13
:1005A0002227B00DA11D621F739FB00DA11D621FF8
:1005B000839FA00D611D221F749F3327A00D611D15
:1005C000231F849F600D211D822F762F6A2F1124F7
:1005D0009F5750409AF0F1F088234AF0EE0FFF1F2A
:1005E000BB1F661F771F881F91505040A9F79E3F81
:1005F000510580F00C9411030C949E025F3FE4F3CC
:10060000983ED4F3869577956795B795F795E795D6
:100610009F5FC1F7FE2B880F911D9695879597F9DF
:10062000089597F99F6780E870E060E008959FEF74
:1006300080EC089500240A94161617061806090679
:10064000089500240A941216130614060506089548
:10065000092E0394000C11F4882352F0BB0F40F4D0
:10066000BF2B11F460FF04C06F5F7F4F8F4F9F4F10
:100670000895BB274A3031F4992322F4BDE29095C6
:1006800081959F4F0C944503BB27FB015527AA2753
:10069000880F991FAA1FA41710F0A41B839550510F
:1006A000B9F7A05DAA3308F0A95DA193009779F787
:1006B000B111B1931192CB010C945E03DC01FC01EA
:1006C000672F71917723E1F7329704C07C916D9386
:1006D00070836291AE17BF07C8F30895F894FFCFF7
:1006E0004572726F722100205741524E494E472188
:1006F0002020202000204D5353563A2032303230F3
:1007000037353737200044697374616E6365203D67
:060710002000636D0000F3
:00000001FF
