S00E0000446F5F416E322E7372656323
S11300000C9434000C9451000C9451000C94510045
S11300100C9451000C9451000C9451000C94510018
S11300200C9451000C9451000C9451000C94510008
S11300300C9451000C9451000C9451000C945100F8
S11300400C9451000C9451000C9451000C945100E8
S11300500C945100C600C800CA00CC00CE00D000E9
S1130060D200D400D700D60011241FBECFE5D4E0BF
S1130070DEBFCDBF10E0A0E6B0E0E8EDF3E002C0E3
S113008005900D92A238B107D9F720E0A2E8B0E0BC
S113009001C01D92A238B207E1F70E94B7010C9487
S11300A0EA010C940000CF92DF92EF92FF9218C005
S11300B088E384BD85B5816085BD08B606FEFDCFA5
S11300C085B58E7F85BD80E488BFC90102C085E205
S11300D090E09C0121503109892B51F7C701B601E9
S11300E06B017C0121E0C21AD108E108F108672BF9
S11300F0682B692B61F7FF90EF90DF90CF90089504
S11301008EEF84BD85B5816085BD08B606FEFDCF42
S113011085B58E7F85BD80E488BF089585EE84BD56
S113012085B5816085BD08B606FEFDCF85B58E7F99
S113013085BD80E488BF0895CF93DF93C0E0D0E00D
S113014003C00E948E002196C630D105D4F30E94CC
S11301508000DF91CF9108950E949C000E949C0032
S1130160089581B38FEF81BB92B382BB94B384BBF8
S113017095B385BB089525B3287090E08A30910526
S1130180B0F4FC01E65DFF4F0C94E40120680FC05D
S1130190236E0DC024640BC0216409C0236207C010
S11301A0216105C0206103C0236C01C0216025BB0F
S11301B0089586B38F708F3051F0B09B0AC0B19B05
S11301C00AC0B29B0AC0B39B0AC080E0089580E0D5
S11301D0089581E0089582E0089583E0089584E01D
S11301E008950E94D900C82F0E94BB00C23061F05C
S11301F018F4C13031F011C0C33049F0C43051F0AB
S11302000CC08CEF82BBEDCF83EF82BBEACF8FECC7
S113021082BBE7CF8FE382BBE4CF8FEF82BBE1CF1A
S113022082B3806882BB0E94800082B38F7782BBD6
S11302300E949C00089580FF04C095B3906195BB13
S113024003C095B39F7E95BB81FF04C095B39062B4
S113025095BB03C095B39F7D95BB82FF04C095B346
S1130260906495BB03C095B39F7B95BB83FF04C08B
S113027085B3806885BB089585B38F7785BB089562
S1130280CF93C82F82958F700E941B010E9410018A
S11302908C2F0E941B010E941001CF91089580E0D1
S11302A00E941B0164E170E080E090E00E94530032
S11302B082B38F7B82BB82B38F7D82BB83E00E943B
S11302C01B010E94100165E070E080E090E00E9454
S11302D053000E94100184E690E00E94AC000E944A
S11302E0100182E00E941B010E94100188E20E941A
S11302F040018CE00E94400186E00E94400181E0C0
S11303000E94400182E00E94400162E070E080E0CF
S113031090E00E9453000895CF93672B19F4C0E82E
S1130320C80F02C0C0ECC80F61E070E080E090E04C
S11303300E9453008C2F0E9440010E949C00CF9188
S1130340089592B3906492BB0E94400182B38F7B64
S113035082BB0895CF93DF93EC0103C00E94A101F7
S1130360219688818111FACFDF91CF91089581B3CD
S11303709FEF91BB82B38A6A82BB84B394BB85B37B
S113038085BB0E944F0160E070E080E090E00E9435
S11303908C0180E690E00E94AA0161E070E080E0B8
S11303A090E00E948C0180E790E00E94AA0168EB33
S11303B07BE080E090E00E9453000E94B1000E9424
S11303C0F10080E090E00895EE0FFF1F0590F49196
S10B03D0E02D0994F894FFCF1D
S11303D84E677579656E2043686920506869200006
S11303E84D535356202D203230323037353737208D
S10503F80000FF
S9030000FC
